S02B0000553A5C454345203336325C65636533363270726F6A6563745C62696E5C50726F6A6563742E6162731A
S123C000FEC033FDC031270E35ED31EC3169700434FB310326F2FEC035EC31270BED3118C8
S123C0200A30700434F920F13DCF090007D206C0CE0001C037C16F090004844D397F4C3A4A
S123C04040C6025B347900354F3708FC4C3980CC0C405B3C585B465A4D5B405B4CCE3A98D7
S123C0605E5E7900C8C69C5BC97900CA5ACBC6585BD87900D9C6015BDA1C0242011C024271
S123C08002790272C6C05B8DC61F5B3BC6805B383D1B9CC7876C82202BC7876C802019C637
S123C0A02A87ED8013B745EC82591AE6FC09146CE20916EE80086E80FC0900AC802EE0EE71
S123C0C082086E82FC0902AC822ECE1B843D141016C03B10EFFC0904042414C7877C090485
S123C0E07C0914FE090C2607527C090C16C091FC0906042417C7877C09067C090C200DFC3C
S123C10009128C27102FF8C7877C0912FC09108C27102FEBC7877C0910C6555B3F585B3FB5
S123C12020B34C3780FC090804240A4E8F8006C601877C09044E8F8002C78FC601877C0924
S123C14008FC090A04240A4E8F4006C601877C09064E8F4002C78FC601877C090A0B4C4E9F
S11BC16080C601877C090EFE0914087E09140B000309011B001500005C
S105FFE0C15EFC
S105FFF0C12228
S105FFFEC02914
S9030000FC
