S02B0000553A5C454345203336325C65636533363270726F6A6563745C62696E5C50726F6A6563742E6162731A
S123C000FEC033FDC031270E35ED31EC3169700434FB310326F2FEC035EC31270BED3118C8
S123C0200A30700434F920F13DCF090007D206C0E00001C037C15C0900001A4D397F4C3AB9
S123C04040C6025B347900354F3708FC4C3980CC0C405B3C585B465A4D5B405B4CCE3A98D7
S123C0605E5E7900C8C69C5BC97900CA5ACB4CD8014DD8024DD8044DD8084CD8104DD820B6
S123C0804CD8404DD8807900D9C6015BDA1C0242011C0242021C024280790272C6C05B8D47
S123C0A0C61F5B3BC6805B383DC7873B4FDB20FCEE80E6E209165BDD086E808E00042DECEE
S123C0C03A3D1C02408006C0A91D02408006C0A9CE0000C6016BE20916088E00042DF43D51
S123C0E0141016C03B10EF07E707D707DCC6555B3F585B3F20F74C3780FC090604240A4E0D
S123C1008F8006C601877C09024E8F8002C78FC601877C0906FC090804240A4E8F4006C67B
S123C12001877C09044E8F4002C78FC601877C09080B4C4E80C601877C0910FE0914087EF1
S123C1400914FE090A0425137C090EFE0912BE09002D08C77C0912527C090C0B0002090072
S107C16001F40000E2
S105FFE0C13228
S105FFF0C0F655
S105FFFEC02914
S9030000FC
