S02B0000553A5C454345203336325C65636533363270726F6A6563745C62696E5C50726F6A6563742E6162731A
S123C000FEC033FDC031270E35ED31EC3169700434FB310326F2FEC035EC31270BED3118C8
S123C0200A30700434F920F13DCF090007D206C0D30001C037C17C090004844D397F4C3A38
S123C04040C6025B347900354F3708FC4C3980CC0C405B3C585B465A4D5B405B4CCE3A98D7
S123C0605E5E7900C8C69C5BC97900CA5ACBC6585BD87900D9C6015BDA1C0242011C024271
S123C08002790272C6C05B8DC61F5B3BC6805B383D1B9CC7876C822030C7876C80201EC62D
S123C0A06316C173C62A87ED8013B745EC82591AE6FC09146CE20916EE80086E80FC090026
S123C0C0AC802EDBEE82086E82FC0902AC822EC91B843D141016C03B10EFFC09040424133F
S123C0E0C7877C09047C0914FE090C2606527C090C079EFC0906042417C7877C09067C095D
S123C1000C200DFC09128C27102FF8C7877C0912FC09108C27102FEBC7877C0910C6555BB1
S123C1203F585B3F20B44C3780FC090804240A4E8F8006C601877C09044E8F8002C78FC6FF
S123C14001877C0908FC090A04240A4E8F4006C601877C09064E8F4002C78FC601877C0941
S123C1600A0B4C4E80C601877C090EFE0914087E09140B374FCC80FC335BCF3D000309016D
S108C1801B0015000086
S105FFE0C162F8
S105FFF0C12624
S105FFFEC02914
S9030000FC
